{
  "_format": "hh-sol-artifact-1",
  "contractName": "DelightCoinFaucet",
  "sourceName": "contracts/DelightCoinFaucet.sol",
  "abi": [
    {
      "inputs": [
        {
          "internalType": "address",
          "name": "_tokenAddress",
          "type": "address"
        },
        {
          "internalType": "uint256",
          "name": "_amountPerRequest",
          "type": "uint256"
        }
      ],
      "stateMutability": "nonpayable",
      "type": "constructor"
    },
    {
      "inputs": [
        {
          "internalType": "address",
          "name": "owner",
          "type": "address"
        }
      ],
      "name": "OwnableInvalidOwner",
      "type": "error"
    },
    {
      "inputs": [
        {
          "internalType": "address",
          "name": "account",
          "type": "address"
        }
      ],
      "name": "OwnableUnauthorizedAccount",
      "type": "error"
    },
    {
      "anonymous": false,
      "inputs": [
        {
          "indexed": true,
          "internalType": "address",
          "name": "previousOwner",
          "type": "address"
        },
        {
          "indexed": true,
          "internalType": "address",
          "name": "newOwner",
          "type": "address"
        }
      ],
      "name": "OwnershipTransferred",
      "type": "event"
    },
    {
      "inputs": [],
      "name": "amountPerRequest",
      "outputs": [
        {
          "internalType": "uint256",
          "name": "",
          "type": "uint256"
        }
      ],
      "stateMutability": "view",
      "type": "function"
    },
    {
      "inputs": [],
      "name": "cooldownPeriod",
      "outputs": [
        {
          "internalType": "uint256",
          "name": "",
          "type": "uint256"
        }
      ],
      "stateMutability": "view",
      "type": "function"
    },
    {
      "inputs": [
        {
          "internalType": "address",
          "name": "",
          "type": "address"
        }
      ],
      "name": "lastRequestTime",
      "outputs": [
        {
          "internalType": "uint256",
          "name": "",
          "type": "uint256"
        }
      ],
      "stateMutability": "view",
      "type": "function"
    },
    {
      "inputs": [],
      "name": "owner",
      "outputs": [
        {
          "internalType": "address",
          "name": "",
          "type": "address"
        }
      ],
      "stateMutability": "view",
      "type": "function"
    },
    {
      "inputs": [],
      "name": "renounceOwnership",
      "outputs": [],
      "stateMutability": "nonpayable",
      "type": "function"
    },
    {
      "inputs": [],
      "name": "requestTokens",
      "outputs": [],
      "stateMutability": "nonpayable",
      "type": "function"
    },
    {
      "inputs": [
        {
          "internalType": "uint256",
          "name": "_amount",
          "type": "uint256"
        }
      ],
      "name": "setAmountPerRequest",
      "outputs": [],
      "stateMutability": "nonpayable",
      "type": "function"
    },
    {
      "inputs": [],
      "name": "token",
      "outputs": [
        {
          "internalType": "contract DelightCoin",
          "name": "",
          "type": "address"
        }
      ],
      "stateMutability": "view",
      "type": "function"
    },
    {
      "inputs": [
        {
          "internalType": "address",
          "name": "newOwner",
          "type": "address"
        }
      ],
      "name": "transferOwnership",
      "outputs": [],
      "stateMutability": "nonpayable",
      "type": "function"
    }
  ],
  "bytecode": "0x60806040523480156200001157600080fd5b5060405162000b8738038062000b87833981810160405281019062000037919062000278565b33600073ffffffffffffffffffffffffffffffffffffffff168173ffffffffffffffffffffffffffffffffffffffff1603620000ad5760006040517f1e4fbdf7000000000000000000000000000000000000000000000000000000008152600401620000a49190620002d0565b60405180910390fd5b620000be816200010f60201b60201c565b5081600160006101000a81548173ffffffffffffffffffffffffffffffffffffffff021916908373ffffffffffffffffffffffffffffffffffffffff160217905550806002819055505050620002ed565b60008060009054906101000a900473ffffffffffffffffffffffffffffffffffffffff169050816000806101000a81548173ffffffffffffffffffffffffffffffffffffffff021916908373ffffffffffffffffffffffffffffffffffffffff1602179055508173ffffffffffffffffffffffffffffffffffffffff168173ffffffffffffffffffffffffffffffffffffffff167f8be0079c531659141344cd1fd0a4f28419497f9722a3daafe3b4186f6b6457e060405160405180910390a35050565b600080fd5b600073ffffffffffffffffffffffffffffffffffffffff82169050919050565b60006200020582620001d8565b9050919050565b6200021781620001f8565b81146200022357600080fd5b50565b60008151905062000237816200020c565b92915050565b6000819050919050565b62000252816200023d565b81146200025e57600080fd5b50565b600081519050620002728162000247565b92915050565b60008060408385031215620002925762000291620001d3565b5b6000620002a28582860162000226565b9250506020620002b58582860162000261565b9150509250929050565b620002ca81620001f8565b82525050565b6000602082019050620002e76000830184620002bf565b92915050565b61088a80620002fd6000396000f3fe608060405234801561001057600080fd5b50600436106100935760003560e01c80636a967491116100665780636a9674911461010c578063715018a61461012a5780638da5cb5b14610134578063f2fde38b14610152578063fc0c546a1461016e57610093565b806304646a4914610098578063359cf2b7146100b6578063394f6181146100c0578063656734ed146100f0575b600080fd5b6100a061018c565b6040516100ad919061057d565b60405180910390f35b6100be610192565b005b6100da60048036038101906100d591906105fb565b6102f8565b6040516100e7919061057d565b60405180910390f35b61010a60048036038101906101059190610654565b610310565b005b610114610322565b604051610121919061057d565b60405180910390f35b610132610328565b005b61013c61033c565b6040516101499190610690565b60405180910390f35b61016c600480360381019061016791906105fb565b610365565b005b6101766103eb565b604051610183919061070a565b60405180910390f35b61038481565b610384600360003373ffffffffffffffffffffffffffffffffffffffff1673ffffffffffffffffffffffffffffffffffffffff168152602001908152602001600020546101df9190610754565b421015610221576040517f08c379a00000000000000000000000000000000000000000000000000000000081526004016102189061080b565b60405180910390fd5b42600360003373ffffffffffffffffffffffffffffffffffffffff1673ffffffffffffffffffffffffffffffffffffffff16815260200190815260200160002081905550600160009054906101000a900473ffffffffffffffffffffffffffffffffffffffff1673ffffffffffffffffffffffffffffffffffffffff166340c10f19336002546040518363ffffffff1660e01b81526004016102c492919061082b565b600060405180830381600087803b1580156102de57600080fd5b505af11580156102f2573d6000803e3d6000fd5b50505050565b60036020528060005260406000206000915090505481565b610318610411565b8060028190555050565b60025481565b610330610411565b61033a6000610498565b565b60008060009054906101000a900473ffffffffffffffffffffffffffffffffffffffff16905090565b61036d610411565b600073ffffffffffffffffffffffffffffffffffffffff168173ffffffffffffffffffffffffffffffffffffffff16036103df5760006040517f1e4fbdf70000000000000000000000000000000000000000000000000000000081526004016103d69190610690565b60405180910390fd5b6103e881610498565b50565b600160009054906101000a900473ffffffffffffffffffffffffffffffffffffffff1681565b61041961055c565b73ffffffffffffffffffffffffffffffffffffffff1661043761033c565b73ffffffffffffffffffffffffffffffffffffffff16146104965761045a61055c565b6040517f118cdaa700000000000000000000000000000000000000000000000000000000815260040161048d9190610690565b60405180910390fd5b565b60008060009054906101000a900473ffffffffffffffffffffffffffffffffffffffff169050816000806101000a81548173ffffffffffffffffffffffffffffffffffffffff021916908373ffffffffffffffffffffffffffffffffffffffff1602179055508173ffffffffffffffffffffffffffffffffffffffff168173ffffffffffffffffffffffffffffffffffffffff167f8be0079c531659141344cd1fd0a4f28419497f9722a3daafe3b4186f6b6457e060405160405180910390a35050565b600033905090565b6000819050919050565b61057781610564565b82525050565b6000602082019050610592600083018461056e565b92915050565b600080fd5b600073ffffffffffffffffffffffffffffffffffffffff82169050919050565b60006105c88261059d565b9050919050565b6105d8816105bd565b81146105e357600080fd5b50565b6000813590506105f5816105cf565b92915050565b60006020828403121561061157610610610598565b5b600061061f848285016105e6565b91505092915050565b61063181610564565b811461063c57600080fd5b50565b60008135905061064e81610628565b92915050565b60006020828403121561066a57610669610598565b5b60006106788482850161063f565b91505092915050565b61068a816105bd565b82525050565b60006020820190506106a56000830184610681565b92915050565b6000819050919050565b60006106d06106cb6106c68461059d565b6106ab565b61059d565b9050919050565b60006106e2826106b5565b9050919050565b60006106f4826106d7565b9050919050565b610704816106e9565b82525050565b600060208201905061071f60008301846106fb565b92915050565b7f4e487b7100000000000000000000000000000000000000000000000000000000600052601160045260246000fd5b600061075f82610564565b915061076a83610564565b925082820190508082111561078257610781610725565b5b92915050565b600082825260208201905092915050565b7f506c656173652077616974206265666f72652072657175657374696e6720616760008201527f61696e0000000000000000000000000000000000000000000000000000000000602082015250565b60006107f5602383610788565b915061080082610799565b604082019050919050565b60006020820190508181036000830152610824816107e8565b9050919050565b60006040820190506108406000830185610681565b61084d602083018461056e565b939250505056fea2646970667358221220a40682e18bbaae03cf5417891f271333670d4ca2eb659a05f0b0f2d897c0fcf964736f6c63430008180033",
  "linkReferences": {},
  "deployedLinkReferences": {}
}