{
  "_format": "hh-sol-artifact-1",
  "contractName": "SampleKVS",
  "sourceName": "contracts/KeyValueStore.sol",
  "abi": [
    {
      "inputs": [],
      "stateMutability": "nonpayable",
      "type": "constructor"
    },
    {
      "anonymous": false,
      "inputs": [
        {
          "indexed": true,
          "internalType": "string",
          "name": "key",
          "type": "string"
        }
      ],
      "name": "DeleteEvent",
      "type": "event"
    },
    {
      "anonymous": false,
      "inputs": [
        {
          "indexed": true,
          "internalType": "string",
          "name": "key",
          "type": "string"
        },
        {
          "components": [
            {
              "internalType": "address",
              "name": "writer",
              "type": "address"
            },
            {
              "internalType": "string",
              "name": "value",
              "type": "string"
            },
            {
              "internalType": "bool",
              "name": "exists",
              "type": "bool"
            }
          ],
          "indexed": false,
          "internalType": "struct Value",
          "name": "val",
          "type": "tuple"
        }
      ],
      "name": "WroteEvent",
      "type": "event"
    },
    {
      "inputs": [
        {
          "internalType": "string",
          "name": "key",
          "type": "string"
        }
      ],
      "name": "del",
      "outputs": [],
      "stateMutability": "nonpayable",
      "type": "function"
    },
    {
      "inputs": [],
      "name": "getKeys",
      "outputs": [
        {
          "internalType": "string[]",
          "name": "",
          "type": "string[]"
        }
      ],
      "stateMutability": "view",
      "type": "function"
    },
    {
      "inputs": [
        {
          "internalType": "string",
          "name": "key",
          "type": "string"
        }
      ],
      "name": "read",
      "outputs": [
        {
          "components": [
            {
              "internalType": "address",
              "name": "writer",
              "type": "address"
            },
            {
              "internalType": "string",
              "name": "value",
              "type": "string"
            },
            {
              "internalType": "bool",
              "name": "exists",
              "type": "bool"
            }
          ],
          "internalType": "struct Value",
          "name": "",
          "type": "tuple"
        }
      ],
      "stateMutability": "view",
      "type": "function"
    },
    {
      "inputs": [
        {
          "internalType": "string",
          "name": "key",
          "type": "string"
        },
        {
          "internalType": "string",
          "name": "value",
          "type": "string"
        }
      ],
      "name": "write",
      "outputs": [],
      "stateMutability": "nonpayable",
      "type": "function"
    }
  ],
  "bytecode": "0x608060405234801561001057600080fd5b50611475806100206000396000f3fe608060405234801561001057600080fd5b506004361061004c5760003560e01c80630bca089a146100515780631e7c01971461006d5780632150c51814610089578063616ffe83146100a7575b600080fd5b61006b60048036038101906100669190610a02565b6100d7565b005b61008760048036038101906100829190610a4b565b610272565b005b6100916104cb565b60405161009e9190610c04565b60405180910390f35b6100c160048036038101906100bc9190610a02565b6106eb565b6040516100ce9190610cd2565b60405180910390f35b6000816040516100e79190610d30565b908152602001604051809103902060020160009054906101000a900460ff16610145576040517f08c379a000000000000000000000000000000000000000000000000000000000815260040161013c90610da4565b60405180910390fd5b3373ffffffffffffffffffffffffffffffffffffffff1660008260405161016c9190610d30565b908152602001604051809103902060000160009054906101000a900473ffffffffffffffffffffffffffffffffffffffff1673ffffffffffffffffffffffffffffffffffffffff16146101f4576040517f08c379a00000000000000000000000000000000000000000000000000000000081526004016101eb90610e10565b60405180910390fd5b600080826040516102059190610d30565b908152602001604051809103902060020160006101000a81548160ff0219169083151502179055508060405161023b9190610d30565b60405180910390207ff946bf2d31b88679103c1a7db285d83463c7f0f65f08ac8983abb0a35d6c467a60405160405180910390a250565b6000826040516102829190610d30565b908152602001604051809103902060020160009054906101000a900460ff1615610356573373ffffffffffffffffffffffffffffffffffffffff166000836040516102cd9190610d30565b908152602001604051809103902060000160009054906101000a900473ffffffffffffffffffffffffffffffffffffffff1673ffffffffffffffffffffffffffffffffffffffff1614610355576040517f08c379a000000000000000000000000000000000000000000000000000000000815260040161034c90610e10565b60405180910390fd5b5b60405180606001604052803373ffffffffffffffffffffffffffffffffffffffff1681526020018281526020016001151581525060008360405161039a9190610d30565b908152602001604051809103902060008201518160000160006101000a81548173ffffffffffffffffffffffffffffffffffffffff021916908373ffffffffffffffffffffffffffffffffffffffff16021790555060208201518160010190816104049190611046565b5060408201518160020160006101000a81548160ff02191690831515021790555090505060018290806001815401808255809150506001900390600052602060002001600090919091909150908161045c9190611046565b508160405161046b9190610d30565b60405180910390207fb22fe2b573a93f80182072e551458aacce64d6e3a58722f84faaa7670872a8d56000846040516104a49190610d30565b90815260200160405180910390206040516104bf9190611271565b60405180910390a25050565b60606000805b60018054905081101561054b576000600182815481106104f4576104f3611293565b5b9060005260206000200160405161050b9190611345565b908152602001604051809103902060020160009054906101000a900460ff161561053e57818061053a9061138b565b9250505b80806001019150506104d1565b5060008167ffffffffffffffff811115610568576105676108d7565b5b60405190808252806020026020018201604052801561059b57816020015b60608152602001906001900390816105865790505b5090506000805b6001805490508110156106e1576000600182815481106105c5576105c4611293565b5b906000526020600020016040516105dc9190611345565b908152602001604051809103902060020160009054906101000a900460ff16156106d4576001818154811061061457610613611293565b5b90600052602060002001805461062990610e5f565b80601f016020809104026020016040519081016040528092919081815260200182805461065590610e5f565b80156106a25780601f10610677576101008083540402835291602001916106a2565b820191906000526020600020905b81548152906001019060200180831161068557829003601f168201915b50505050508383815181106106ba576106b9611293565b5b602002602001018190525081806106d09061138b565b9250505b80806001019150506105a2565b5081935050505090565b6106f361086f565b600080836040516107049190610d30565b90815260200160405180910390206040518060600160405290816000820160009054906101000a900473ffffffffffffffffffffffffffffffffffffffff1673ffffffffffffffffffffffffffffffffffffffff1673ffffffffffffffffffffffffffffffffffffffff16815260200160018201805461078390610e5f565b80601f01602080910402602001604051908101604052809291908181526020018280546107af90610e5f565b80156107fc5780601f106107d1576101008083540402835291602001916107fc565b820191906000526020600020905b8154815290600101906020018083116107df57829003601f168201915b505050505081526020016002820160009054906101000a900460ff16151515158152505090508060400151610866576040517f08c379a000000000000000000000000000000000000000000000000000000000815260040161085d9061141f565b60405180910390fd5b80915050919050565b6040518060600160405280600073ffffffffffffffffffffffffffffffffffffffff168152602001606081526020016000151581525090565b6000604051905090565b600080fd5b600080fd5b600080fd5b600080fd5b6000601f19601f8301169050919050565b7f4e487b7100000000000000000000000000000000000000000000000000000000600052604160045260246000fd5b61090f826108c6565b810181811067ffffffffffffffff8211171561092e5761092d6108d7565b5b80604052505050565b60006109416108a8565b905061094d8282610906565b919050565b600067ffffffffffffffff82111561096d5761096c6108d7565b5b610976826108c6565b9050602081019050919050565b82818337600083830152505050565b60006109a56109a084610952565b610937565b9050828152602081018484840111156109c1576109c06108c1565b5b6109cc848285610983565b509392505050565b600082601f8301126109e9576109e86108bc565b5b81356109f9848260208601610992565b91505092915050565b600060208284031215610a1857610a176108b2565b5b600082013567ffffffffffffffff811115610a3657610a356108b7565b5b610a42848285016109d4565b91505092915050565b60008060408385031215610a6257610a616108b2565b5b600083013567ffffffffffffffff811115610a8057610a7f6108b7565b5b610a8c858286016109d4565b925050602083013567ffffffffffffffff811115610aad57610aac6108b7565b5b610ab9858286016109d4565b9150509250929050565b600081519050919050565b600082825260208201905092915050565b6000819050602082019050919050565b600081519050919050565b600082825260208201905092915050565b60005b83811015610b29578082015181840152602081019050610b0e565b60008484015250505050565b6000610b4082610aef565b610b4a8185610afa565b9350610b5a818560208601610b0b565b610b63816108c6565b840191505092915050565b6000610b7a8383610b35565b905092915050565b6000602082019050919050565b6000610b9a82610ac3565b610ba48185610ace565b935083602082028501610bb685610adf565b8060005b85811015610bf25784840389528151610bd38582610b6e565b9450610bde83610b82565b925060208a01995050600181019050610bba565b50829750879550505050505092915050565b60006020820190508181036000830152610c1e8184610b8f565b905092915050565b600073ffffffffffffffffffffffffffffffffffffffff82169050919050565b6000610c5182610c26565b9050919050565b610c6181610c46565b82525050565b60008115159050919050565b610c7c81610c67565b82525050565b6000606083016000830151610c9a6000860182610c58565b5060208301518482036020860152610cb28282610b35565b9150506040830151610cc76040860182610c73565b508091505092915050565b60006020820190508181036000830152610cec8184610c82565b905092915050565b600081905092915050565b6000610d0a82610aef565b610d148185610cf4565b9350610d24818560208601610b0b565b80840191505092915050565b6000610d3c8284610cff565b915081905092915050565b600082825260208201905092915050565b7f446f65736e277420657869737400000000000000000000000000000000000000600082015250565b6000610d8e600d83610d47565b9150610d9982610d58565b602082019050919050565b60006020820190508181036000830152610dbd81610d81565b9050919050565b7f4e6f207065726d697373696f6e00000000000000000000000000000000000000600082015250565b6000610dfa600d83610d47565b9150610e0582610dc4565b602082019050919050565b60006020820190508181036000830152610e2981610ded565b9050919050565b7f4e487b7100000000000000000000000000000000000000000000000000000000600052602260045260246000fd5b60006002820490506001821680610e7757607f821691505b602082108103610e8a57610e89610e30565b5b50919050565b60008190508160005260206000209050919050565b60006020601f8301049050919050565b600082821b905092915050565b600060088302610ef27fffffffffffffffffffffffffffffffffffffffffffffffffffffffffffffffff82610eb5565b610efc8683610eb5565b95508019841693508086168417925050509392505050565b6000819050919050565b6000819050919050565b6000610f43610f3e610f3984610f14565b610f1e565b610f14565b9050919050565b6000819050919050565b610f5d83610f28565b610f71610f6982610f4a565b848454610ec2565b825550505050565b600090565b610f86610f79565b610f91818484610f54565b505050565b5b81811015610fb557610faa600082610f7e565b600181019050610f97565b5050565b601f821115610ffa57610fcb81610e90565b610fd484610ea5565b81016020851015610fe3578190505b610ff7610fef85610ea5565b830182610f96565b50505b505050565b600082821c905092915050565b600061101d60001984600802610fff565b1980831691505092915050565b6000611036838361100c565b9150826002028217905092915050565b61104f82610aef565b67ffffffffffffffff811115611068576110676108d7565b5b6110728254610e5f565b61107d828285610fb9565b600060209050601f8311600181146110b0576000841561109e578287015190505b6110a8858261102a565b865550611110565b601f1984166110be86610e90565b60005b828110156110e6578489015182556001820191506020850194506020810190506110c1565b8683101561110357848901516110ff601f89168261100c565b8355505b6001600288020188555050505b505050505050565b60008160001c9050919050565b600073ffffffffffffffffffffffffffffffffffffffff82169050919050565b600061115861115383611118565b611125565b9050919050565b6000815461116c81610e5f565b6111768186610afa565b9450600182166000811461119157600181146111a7576111da565b60ff1983168652811515602002860193506111da565b6111b085610e90565b60005b838110156111d2578154818901526001820191506020810190506111b3565b808801955050505b50505092915050565b600060ff82169050919050565b60006112036111fe83611118565b6111e3565b9050919050565b600060608301600080840154905061122181611145565b61122e6000870182610c58565b50600184018583036020870152611245838261115f565b92505060028401549050611258816111f0565b6112656040870182610c73565b50819250505092915050565b6000602082019050818103600083015261128b818461120a565b905092915050565b7f4e487b7100000000000000000000000000000000000000000000000000000000600052603260045260246000fd5b600081546112cf81610e5f565b6112d98186610cf4565b945060018216600081146112f457600181146113095761133c565b60ff198316865281151582028601935061133c565b61131285610e90565b60005b8381101561133457815481890152600182019150602081019050611315565b838801955050505b50505092915050565b600061135182846112c2565b915081905092915050565b7f4e487b7100000000000000000000000000000000000000000000000000000000600052601160045260246000fd5b600061139682610f14565b91507fffffffffffffffffffffffffffffffffffffffffffffffffffffffffffffffff82036113c8576113c761135c565b5b600182019050919050565b7f446f65736e277420657869737473000000000000000000000000000000000000600082015250565b6000611409600e83610d47565b9150611414826113d3565b602082019050919050565b60006020820190508181036000830152611438816113fc565b905091905056fea264697066735822122058715f2ceda9567c059e52defe57341011686f4de0d71b9f77316f26e8000e4164736f6c63430008180033",
  "linkReferences": {},
  "deployedLinkReferences": {}
}